:060000000200690207F195
:03000B00020812D6
:030013000207F3EE
:03001B00020814C4
:03002300020FFACF
:03002B00020816B2
:03003300020E8535
:03003B00020FFBB6
:03004300020100B7
:03004B000207F2B7
:03005300020100A7
:03005B000207F4A5
:030063000207F59C
:0600C20075080002006653
:030066000203F999
:2001C10030000790E6A07401F022D2002290E6B8E0FFB40100E433FE90E6B9E0FDBDA81BF3
:2001E100C20090E680E0FD74084DF090000A120FA090E680E0FD74F75DF02290E6B9E0FD9C
:20020100BDB01290E6BAE0FCA3E08C08C20090E6A07480F02290E6B9E0FDBDA2028008BDAB
:20022100A9028003020319EF339201BDA903D38001C3920250047D5180027D508D0990E62B
:20024100BAE0F50AA3E0F50B90E6BEE0F9A3E0FAC200E94A700122C3E99440EA940050061B
:2002610089008A05800478407D0030014990E6A0E0FC7D0020E1F67525407526E7752700D4
:200281008828752900850A23850B24A202920485098212040C400790E6A07401F02290E6E3
:2002A100B57401F090E68AE4F090E68BE8F090E6A07480F0804C90E6B57401F090E68AE43C
:2002C100F090E68BF090E6A07480F090E6A0E0FD7C0020E1F6752E40752FE7753000883110
:2002E100753200850A2C850B2DA20292058508337534A685098212047A400790E6A0740122
:20030100F0227D00E9C398F9EA9DFAE8250AF50AED350BF50B02025390E6B9E0FEBEA30285
:2003210080030203F2EF33920390E6BAE0FEA3E0FF90E6BEE0FCA3E0FDC200EC4D700122DD
:20034100C3EC9440ED940050068C028D0380047A407B0030034590E6A0E0F97B0020E1F692
:200361008E148F158A1675170090E740C007C006C005C004C0021205DAD002D004D005D03F
:2003810006D00790E6B57401F090E68AE4F090E68BEAF090E6A07480F0804490E6B57401E2
:2003A100F090E68AE4F090E68BF090E6A07480F090E6A0E0F97B0020E1F68E828F83751481
:2003C100407515E78C168D17C007C006C005C004C0021205DAD002D004D005D006D0077BB9
:2003E10000ECC39AFCED9BFDEA2EFEEB3FFF02033C90E6A07401F02290E6007412F0C20A5D
:0B0401001208183000FD1201CE80F838
:2010430012010002FFFFFF40B4041386000001020001090212000101008032090400000008
:20106300FFFFFF00791093104310015510015E100000000267107768697465717561726B5E
:20108300407768697465717561726B2E6F72670043797072657373204658322073657269A6
:0E10A300657320626F6F746C6F61646572001C
:20040C00C007C006C005AF8230040CAE248E2AAD237E008D2B8004AE238E2AEF2FFFF582DC
:20042C0012064B503EA204E433FD7E0074012DF50CE43EF50D90002A75F04012068950234D
:20044C0074014FF58212064B501985280E85290F8525828526838527F01206F74002800743
:20046C00D38004120662C3D005D006D00722C007C006C005C004C003C002C001C000AF82EB
:20048C00E4F535F536EF2FFFF58212064B40030205B88533F005F0753B01753C00800BE5AF
:2004AC003B253BF53BE53C33F53CD5F0F2E4B5340474018001E4FAC3E5359531E5369532FF
:2004CC0040030205B830050CAE2D8E37AD2C7E008D388004AE2C8E37A205E433FD7E007441
:2004EC00012DF50CE43EF50D90003775F04012068940030205B8C002AD3BAE3C8D148E15B6
:20050C00852C82852D83C007C006C005C003C001C000120E87AA82AC83D000D001D003D08B
:20052C0005D006D007EDC39AF539EE9CF53AE531C39535FDE5329536FEC3ED9539EE953A11
:20054C00D002500DE531C39535F539E5329536F53AE535252EFCE536352FFDAE3085390CF1
:20056C00853A0D8C828D838EF0120689503E120662400280487E00EA7006C3EE9534500AA2
:20058C008F8212064B40030E80EDEEB53403C3802CE539252CF52CE53A352DF52DE539255E
:2005AC0035F535E53A3536F5360204C3120662E531B53508E532B53603D38001C3D000D014
:0E05CC0001D002D003D004D005D006D0072203
:2005DA00C085C084C086AC14AD15AE16AF17EE60010FEF602375AF0785829B85839A8C9EBD
:1F05FA008D9D75860090E67B75860190E67CE00586F00586DEF8DFF6D086D084D085222C
:20061900C007C00690E678E0FF7E0020E00510060280F190E678E0FF7E0030E203C3800DAB
:2006390030070990E678E0FFA2E18001D3D006D00722C007AF8290E6787480F090E679EF46
:20065900F0D207120619D00722C007C00690E6787440F090E678E0FF7E0020E6F690E6783A
:20067900E0FF7E0030E203C38001D3D006D00722C007C006C005C004C003C002C001C000ED
:20069900AD82AE83AFF0E50C450D7003D3803E7B007C00EBB50C06ECB50D028024EB2DF8EE
:2006B900EC3EF98F02888289838AF0121018F890E679F0D20712061950070BBB00D50C8044
:2006D900D2EBB50C07ECB50D03D38001C3D000D001D002D003D004D005D006D00722C0072F
:2006F900C006C005C004C003C002C001C00085821085831185F012E50E450F7004D302073E
:20071900E07401B50E06E4B50F028002800690E6787420F090E679E07B007C0079007A00C5
:20073900E9B50E06EAB50F02807AC20712061940030207D4740229F8E43AFFE8B50E0AEFD2
:20075900B50F0690E6787420F0740129FEE43AFFEEB50E2CEFB50F2875AF03759AE6759BA7
:200779007890E67B7440F0E0AFE0E92510F8EA3511FDAE1288828D838EF0EF1207F68018B3
:20079900E92510FDEA3511FEAF1290E679E0F88D828E838FF01207F609B900010A89038ADE
:2007B9000402073990E678E0FF7E0020E6F690E678E0FF7E0030E203C3800CEBB50E07EC43
:1807D900B50F03D38001C3D000D001D002D003D004D005D006D007226C
:06009800E478FFF6D8FD3C
:0107F10032D5
:0107F20032D4
:0107F30032D3
:200076007900E94400601B7A009010B5780075923EE493F2A308B800020592D9F4DAF2754A
:0200960092FFD7
:0107F40032D2
:0107F50032D1
:030100000208C62C
:03010400020FFCEB
:03010800020EE004
:03010C00020FDA05
:03011000021017C3
:0301140002103C9A
:03011800020ED5FF
:03011C000201B825
:03012000020F01CA
:0301240002103A8C
:03012800020F02C1
:03012C0002103B83
:0301300002104278
:03013400020811AD
:03013800020813A7
:03013C000208179F
:03014000020EFEAE
:030144000201B8FD
:030148000210346E
:03014C0002103569
:0301500002103664
:030154000210375F
:030158000210385A
:03015C0002103955
:03016000020FFD8E
:030164000201B8DD
:030168000201B8D9
:03016C000201B8D5
:03017000020F007B
:03017400020F0374
:03017800020F2152
:03017C00020F234C
:03018000020F0467
:03018400020F2245
:03018800020F243F
:03018C00020FED72
:03019000020E86D6
:03019400020ED682
:03019800020EE173
:03019C00020EFD53
:0301A000020ED478
:0301A400020ED771
:0301A800020EFC48
:0301AC00020EFF41
:0301B0000208152D
:0301B400021041F5
:0101B8003214
:1B07F60020F71130F6138883A88220F509F6A8837583002280FEF280F5F02202
:0108110032B4
:0108120032B3
:0108130032B2
:0108140032B1
:0108150032B0
:0108160032AF
:0108170032AE
:20081800C209753D00D2E890E668E0FF74084FF090E65CE0FF74014FF090E65D7401F0D2A2
:20083800AF90E680E0FF7E0020E10990E680E0FF74024FF0300A0F90E680E0FF74084FF031
:2008580090000A120FA090E680E0FF74F75FF022AF82BF00028037BF01028036BF02028010
:2008780039BF04028038BF06028037BF08028036BF80028019BF8102801CBF8202801BBF58
:200898008402801ABF86028019BF881E801890E6A02290E6A12290E6A22290E6A32290E6E7
:2008B800A42290E6A52290E6A62290000022C022C0E0C0F0C082C083C007C006C005C00460
:2008D800C003C002C001C000C0D075D000C08675860090E6B9E0FFBF061B90E6B8E0FEB436
:2008F8000100E43390E6BAE0FDA3E0F5828D13120FEE020B4EBF091C90E6B8E0FEB4010012
:20091800E433FE600F90E6BAE0FDA3E08D82120FFE020B4EBF081090E6B8E0FEB40100E4A6
:2009380033120F05020B4EBF0B2590E6B8E0FEB40100E433FE601890E6BCE0FDA3E090E6A6
:20095800BAE0FCA3E08C148D82120FDB020B4EBF0A1990E6B8E0FEB40100E43390E6BCE094
:20097800FDA3E08D82120EE2020B4EE4BF030104FE603A90E6B8E0FDB40100E433FD602DCF
:2009980090E6BAE0FCA3E0FDBC010EBD000BD20990E6A07480F0020B4EBC0205BD000280EE
:2009B80003020B4E90E6A07480F0020B4EEF703B90E6B8E0FDB40100E433A208E433FDA29B
:2009D80009E43325E0FC420590E740EDF090E741E4F090E6B504F090E68AE4F090E68B740F
:2009F80002F090E6A07480F0020B4EEF702E90E6B8E0FDBD0103ED8001E490E740E4F090D2
:200A1800E741F090E6B504F090E68AE4F090E68B7402F090E6A07480F0020B4EEE7008BFD2
:200A380001028003020AEC90E6B8E0FEBE02028003020AEC90E6BAE0FDA3E0FE4D60030297
:200A58000B4E90E6BCE0FDA3E08D82120868AD82AE83ED4E7003020B4E90E6B9E0FCBC03CF
:200A7800188D828E83E0FC4304018D828E83ECF090E6A07480F0020B4E90E6BCE0FBA3E021
:200A98008B82C006C005120ED8D005D0064003020B4E8D828E83E0FC5304FE8D828E83EC08
:200AB800F090E6BCE0FDA3E0740F5DFB7C00530580E4C423CDC423541F6DCD541FCD6DCDC7
:200AD800FEED4203EE420490E683EBF0E0FE74204EF08062EF705990E6B8E0FFE4BF0201C9
:200AF8000490E6BCE0FEA3E08E82120868AE82AF83EE4F60418E828F83E0FE5306017F009C
:200B1800E4BE0004BF000104FEB40100E433FE90E740F090E741E4F090E6B504F090E68A39
:200B3800E4F090E68B7402F090E6A07480F0800690E6B81201C1AF9174EF5FF59190E65D85
:200B58007401F0D086D0D0D000D001D002D003D004D005D006D007D083D082D0F0D0E0D0A1
:200B78002232AE82AF837544007545E07401B5422DE5437029AA44AB458E828F83E493F88B
:200B9800A3E493F98814891588828983E493F888167517008A828B831205DA020E6A740246
:200BB800B542028003020D8974022EF557E43FF558855782855883E493F9C3E543994003B4
:200BD800020D89E4F547F54874032EF551E43FF55274062EF553E43FF55474092EF555E47E
:200BF8003FF556754600855782855883E493F8C3E546984003020E6A855182855283E493FF
:200C1800F8A3E493F9E54675F009A428F54BE935F0F54CE543B54631A844A945854B148526
:200C38004C15854B82854C83E493FD8D16751700888289831205DA854B82854C83E493FDD1
:200C58002544F544E43545F545E543B5460474018001E4FD7404254BF55AE4354CF55BA8B0
:200C780047754900855A82855B83E493FAC3E5499A4003020D82855382855483E493FAA3F9
:200C9800E493FB880408EC75F009A42AF54DEB35F0F54EED6039AA44AB45854D14854E1547
:200CB800854D82854E83E493FC8C167517008A828B83C005C0001205DAD000D005854D8248
:200CD800854E83E493FC2544F544E43545F5457404254DFAE4354EFB854859754A008A82C2
:200CF8008B83E493F9C3E54A995077C002C003855582855683E493F9A3E493FCAB590559E5
:200D1800EB75F007A429F54FEC35F0F550D003D002ED6049C002C003A944AC45854F1485F2
:200D38005015854F82855083E493FB8B1675170089828C83C005C003C002C0001205DAD004
:200D580000D002D003D005854F82855083E493FC2544F544E43545F545D003D002054A02B0
:200D78000CF68559480549020C7C88470546020BFE7403B5420474018001E4FD6023E54342
:200D9800701FAB44AC457514B17515109010B1E493FA8A167517008B828C831205DA020EED
:200DB8006AED7003020E63AC437D00EC24FFFAED34FFFB740B2EF582E43FF583E493F879A7
:200DD80000C3EA98EB648089F063F08095F04003020E63740C2EF582E43FF583E493FEA388
:200DF800E493FF1CBCFF011DEDCC25E0CC33FDEC2EF582ED3FF583E493FEA3E493FF85442A
:200E1800828545837402F0A385824485834504F0A38582448583458E828F83E493FD6032F3
:200E38000EBE00010F854482854583EDF0A3858244858345E4F0A385824485834590E0008F
:200E5800E0FD0D0D90E000EDF080CC90E6A07401F0227E007FE090E6B57401F090E6B3EFC8
:0D0E7800F090E6B4EEF090E6A07480F02259
:0410B1000403090427
:010E8500323A
:010E86003239
:200E8700E514451560467A01E51425E0F514E515334012F515E5829514E583951540030AD8
:200EA70080E6C3E51513F515E51413F514C3E5829514F5F0E58395154005F58385F082C395
:0D0EC700E51513F515E51413F514DAE12215
:010ED40032EB
:20009E007800E84400600A790075923EE4F309D8FC7800E84400600C7900903E00E4F0A3F4
:0400BE00D8FCD9FA97
:010ED50032EA
:010ED60032E9
:010ED70032E8
:080ED80090E6A07480F0D32223
:010EE00032DF
:010EE10032DE
:1A0EE20090E740E4F090E6B504F090E68AE4F090E68B04F090E6A003F02258
:010EFC0032C3
:010EFD0032C2
:010EFE0032C1
:010EFF0032C0
:010F000032BE
:010F010032BD
:010F020032BC
:010F030032BB
:010F040032BA
:1C0F050090E740E53DF090E6B57401F090E68AE4F090E68B04F090E6A003F02283
:010F2100329D
:010F2200329C
:010F2300329B
:010F2400329A
:200F2500C3E5829407F582E5839400F5835009858282858282E58222600A74FE00001470A8
:200F4500FDD583F6E5826003D582FD22AE82AF838E04EFCC25E0CC33FDEE2CFEEF3DFF907E
:200F6500E600E0FC7D00EC20E419EC30E309EFC313CE13CEFF800CEFC313CE13CEC313CE05
:200F850013CEFFC374149EE49F400122EE24ECFEEF34FFFF8E828F83020F25AE82AF839036
:200FA500E600E0FC7D00EC30E4067AB37B0B800EEC30E3067AD77B0580047AE97B028E04DA
:150FC5008F051EBEFF011FEC4D60098A828B83120F2580EA22FA
:010FDA0032E4
:120FDB00E514700790E6A07480F02290E6A07401F022DB
:010FED0032D1
:0C0FEE0085824285134390106B020B7A41
:010FFA0032C4
:010FFB0032C3
:010FFC0032C2
:010FFD0032C1
:190FFE00E582FF6003BF010A753D0090E6A07480F02290E6A07401F022DC
:0110170032A6
:0D00690075815B12103DE5826003020066A8
:1C10180020F71430F6148883A88220F507E6A88375830022E280F7E49322E022E7
:011034003289
:011035003288
:011036003287
:011037003286
:011038003285
:011039003284
:01103A003283
:01103B003282
:01103C003281
:04103D007582002296
:01104100327C
:01104200327B
:00000001FF
